:020000040800F2
:100000006007002089010008AB100008D10D00082E
:10001000A91000088F020008691400080000000001
:10002000000000000000000000000000BB130008FA
:100030009102000800000000B9130008BD13000879
:10004000A3010008A3010008A3010008A301000800
:10005000A3010008A3010008A3010008A3010008F0
:10006000A3010008A3010008A3010008A3010008E0
:10007000A3010008A3010008A3010008A3010008D0
:10008000A3010008A3010008A3010008A3010008C0
:10009000A3010008A3010008A3010008A3010008B0
:1000A000A3010008A3010008A3010008A3010008A0
:1000B000A3010008A3010008A3010008A301000890
:1000C000A3010008A3010008A3010008A301000880
:1000D000A3010008A3010008A3010008A301000870
:1000E000A3010008A3010008A301000800F002F822
:1000F00000F03AF80AA090E8000C82448344AAF188
:100100000107DA4501D100F02FF8AFF2090EBAE885
:100110000F0013F0010F18BFFB1A43F0010318473B
:10012000501D0000701D0000103A24BF78C878C12F
:10013000FAD8520724BF30C830C144BF04680C60ED
:10014000704700000023002400250026103A28BF35
:1001500078C1FBD8520728BF30C148BF0B60704739
:100160001FB51FBD10B510BD00F058F81146FFF7C0
:10017000F7FF01F08BF900F076F803B4FFF7F2FF18
:1001800003BC00F07DF8000009488047094800479B
:10019000FEE7FEE7FEE7FEE7FEE7FEE7FEE7FEE737
:1001A000FEE7FEE704480549054A064B7047000094
:1001B00021140008ED000008600100206007002005
:1001C00060030020600300204FF0000200B51346DA
:1001D00094469646203922BFA0E80C50A0E80C5067
:1001E000B1F12001BFF4F7AF090728BFA0E80C5018
:1001F00048BF0CC05DF804EB890028BF40F8042B11
:1002000008BF704748BF20F8022B11F0804F18BF7D
:1002100000F8012B7047704770477047754600F033
:100220002BF8AE4605006946534620F00700854688
:1002300018B020B5FFF7B6FFBDE820404FF000062C
:100240004FF000074FF000084FF0000B21F00701BE
:10025000AC46ACE8C009ACE8C009ACE8C009ACE801
:10026000C0098D46704710B50446AFF300802046A4
:10027000BDE81040FFF781BF00487047FC00002038
:1002800001491820ABBEFEE7260002007047FEE7DA
:10029000704772B6FEE7000070B5044600F0FEF845
:1002A0000546601C02D004480078044400F0F6F8CB
:1002B000401BA042FAD370BD000000202DE9F84F8A
:1002C000DFF8B891002409F1040A0AF1040B23466F
:1002D0000F270BF1040EC9E00125A5402A40AA42D0
:1002E0007DD1674ED1F804C0ACEB0608B44532D0DE
:1002F00014DCBCF1030F3AD009DCBCF1000F2AD0AA
:10030000BCF1010F1CD0BCF1020F31D11DE0BCF1DA
:10031000110F17D0BCF1120F2AD119E0B8F5881FC0
:1003200019D006DCB8F5803F15D0B8F5801F1FD175
:1003300011E0B8F5001F0ED0B8F5041F18D10AE07F
:10034000CB6815E0CB681B1D12E0CB6808330FE0CB
:10035000CB680C330CE08B682BB1012B4FF00803FA
:1003600003D0456104E0042302E0056100E00023BE
:10037000FF2A01D8064601E000F104064FEA840591
:1003800001D9A5F12005D6F8008007FA05FC28EA76
:100390000C0803FA05F548EA0508C6F800804D6820
:1003A000ED0062D5374DAE6946F00106AE61AD692C
:1003B00024F0030605F001050095334D06EB050C0E
:1003C000DCF80850A607360F07FA06F825EA0805F4
:1003D000DFF8B880404503D14FF0000817E044E053
:1003E000DFF8AC80404502D14FF001080FE0DFF8A4
:1003F000A480404502D14FF0020808E0DFF8988061
:10040000404502D14FF0030801E04FF0040808FA1C
:1004100006F848EA0508CCF808804D68D9F800606D
:10042000ED034D4601D5164300E096432E604D681E
:10043000DAF80060AD03554601D5164300E0964357
:100440002E604D68DBF80060ED025D4601D5164375
:1004500000E096432E604D68DEF80060AD02754600
:1004600001D5164300E096432E60641C0D682A46B1
:10047000E5407FF431AFBDE8F88F00000004014093
:10048000000011100010024000000140000801406F
:10049000000C014000100140001401400148806838
:1004A000704700000000002070B504001BD094F8D5
:1004B0003D00002520B984F83C50204600F046F964
:1004C000242084F83D002068016821F001010160CA
:1004D00000F094FA4D4A6168914201D84C4900E01D
:1004E0004C49884201D2012070BD4B492368B0FBC2
:1004F000F1F15E6826F03F060E435E60636893424A
:1005000006D94FF4967359434FF47A73B1FBF3F164
:100510002368491C1E6A26F03F0631431962616850
:10052000914210D84900401EB0FBF1F2521CC2F3B8
:100530000B02042A01D2042022E0B0FBF1F0401C9F
:10054000C0F30B001CE0A368F3B301EBC10202EBA4
:100550000116421EB2FBF6F2521C42F48042120512
:1005600049D093B301EBC10202EB0111401EB0FB75
:10057000F1F0401CC0F30B0040F4804040F4004018
:100580002168CA694CF6FF739A431043C861D4E9E5
:100590000701084321680A6822F0C002104308607E
:1005A000D4E9030101432068826848F2FF339A438B
:1005B00011438160D4E9050108432168CA6822F02B
:1005C000FF021043C86001E00EE016E020680168F9
:1005D00041F0010101602564202084F83D0025637D
:1005E00084F83E50002070BD01EB4106421EB2FB74
:1005F000F6F2521CB3E70120C2E701EB4101401EB5
:10060000B0FBF1F0401CC0F30B00B7E7A08601007F
:1006100080841E0000093D0040420F002DE9FF4F7D
:1006200083B09A46DDE9119793460446DDF8408091
:10063000FFF734FF054694F83D0020287FD11923A9
:10064000012240492046009500F04AFC002876D15E
:1006500094F83C00012872D0012084F83C00206806
:100660000168C90703D1016841F0010101602068F8
:10067000016821F400610160212084F83D004020E0
:1006800084F83E0000262664C4F82480A4F82A904A
:10069000608D20852C48E062CDE9007553465A46AE
:1006A0002046049900F0ACFB70B930E02A46394688
:1006B000204600F094FC58B1206C042804D1206836
:1006C000016841F400710160012007B0BDE8F08FBE
:1006D000606A216800780861606A401C6062218D50
:1006E000491E89B22185628D521E62852268536936
:1006F000DB435B070BD469B100781061606A401C72
:100700006062208D401E2085608D401E6085208D9A
:100710000028CBD12A463946204600F0BBFB0028F2
:10072000CAD154F83D0B016841F4007101602020EA
:1007300004F81E09E67766770020C6E7FFE7022087
:10074000C3E70000020010000000FFFF10B586B0F4
:1007500000210091019102910391006813498842A0
:1007600022D1134CA06940F00800A061A06969463D
:1007700000F0080004904FF44070009012200190A7
:10078000032003900B48FFF799FD0B48416841F0A7
:10079000E06141F002014160E06940F40010E06175
:1007A000E06900F40010049006B010BD0054004051
:1007B00000100240000C0140000001400248816826
:1007C000027811448160704700000020074810B58E
:1007D000016841F010010160032000F067F80F206C
:1007E00000F006F800F024F8002010BD00200240C0
:1007F00070B50D4D04464FF47A712878B1FBF0F0D6
:100800000A490968B1FBF0F000F0CEFA48B9102CA3
:1008100007D200222146501E00F028F800206C600C
:1008200070BD012070BD0000000000200C00002001
:100830000C4808B5816941F001018161816901F0CD
:1008400001010091C16941F08051C161C06900F0AE
:10085000805000900448416821F0E06141F08061DF
:10086000416008BD0010024000000140F0B40E4B92
:100870001B680C46C3F30223C3F10705042D00D9FE
:100880000425191D072901D2002300E0DB1E0126E3
:1008900006FA05F1491E214099409E40761E1640F9
:1008A0003143F0BC00F0E1BD0CED00E0064900F082
:1008B000070208684FF6FF03184040EA0220034A87
:1008C00010430860704700000CED00E00000FA05DE
:1008D0002DE9F0470F46050061D0434E306800F027
:1008E0000700B84209D2306820F007003843306072
:1008F000306800F00700B84251D128683B4C8107AE
:1009000012D5400703D5606840F4E0606060287845
:10091000000703D5606840F4605060606068A968B3
:1009200020F0F000084360602878C00728D068688D
:10093000012810D02168022810D0890700292EDA5A
:10094000616821F0030101436160FFF7A7FD804664
:1009500041F288390DE021688903EFE78901EDE76D
:10096000FFF79CFDA0EB0801494502D90320BDE833
:10097000F0876068696800F00C00B0EB810FEFD180
:10098000306800F00700B8420BD9306820F007004B
:1009900038433060306800F00700B84201D00120D1
:1009A000E5E72878400705D56068E96820F4E0604D
:1009B000084360602878000706D56068296920F43C
:1009C000605040EAC100606000F028F86168084AA1
:1009D000C1F30311515CC84006490860064800682D
:1009E000FFF706FF0020C2E700200240001002408F
:1009F000901500080C000020040000200448054960
:100A000000684968044AC1F30221515CC84070473C
:100A10000C00002000100240A015000812A185B0B3
:100A20000FC98DE80F0014A0144A006804905168A3
:100A3000134801F00C03042B10D0082B0ED1C1F386
:100A40008343C9031DF803000AD5516804AAC1F302
:100A50004041515C0A4A5043B0FBF1F005B0704789
:100A600008494843FAE7000002030405060708099D
:100A70000A0B0C0D0E0F10100102000000100240B6
:100A800000127A0000093D002DE9F84F040070D0F3
:100A90002078C04DC00749D06868C0F381000128A4
:100AA00007D06868C0F38100022809D16868C003D4
:100AB00006D52868800339D560680028E7D035E07E
:100AC0006068B0F5803F0BD010B1B0F5A02F11D009
:100AD000286820F480302860286820F4802002E014
:100AE000286840F480302860606890B1FFF7D6FC39
:100AF00006460AE0286840F480202860F0E700BF3E
:100B0000FFF7CCFC801B642873D828688003F7D5D6
:100B10000CE0FFF7C3FC064605E000BFFFF7BEFC94
:100B2000801B6428F0D828688003F7D420789A4E78
:100B300080074FF001094FF0000839D5686810F0C0
:100B40000C0F07D06868C0F38100022809D16868DB
:100B5000C00306D42868800714D52069012808D16D
:100B600010E02069B0B1C6F80090FFF797FC074687
:100B700005E00AE1FFF792FCC01B0228C4D82868F0
:100B80008007F7D52868616920F0F80040EAC100C5
:100B900028600DE0C6F80080FFF780FC074604E0FF
:100BA000FFF77CFCC01B022823D828688007F7D4F5
:100BB000207800072CD57948A169D9B1C0F80090F8
:100BC000FFF76CFC074604E0FFF768FCC01B022837
:100BD0000FD8686A8007F7D571484FF4FA5100685A
:100BE000B0FBF1F0009000BF0098411E0091FAD2D6
:100BF0000EE080E0C0F80080FFF750FC074604E0FC
:100C0000FFF74CFCC01B022875D8686A8007F7D430
:100C10002078400760D5E8690027C00008D4E8695B
:100C200040F08050E861E869012700F080500090B2
:100C30005C480168C90513D40168834641F480719A
:100C40000160FFF72BFC824606E000BFFFF726FCA1
:100C5000A0EB0A0064284ED8DBF80000C005F5D5EB
:100C6000E06801280AD008B1052813D0286A20F0CE
:100C700001002862286A20F0040002E0286A40F09F
:100C800001002862E06841F2883B98B1FFF706FC5A
:100C900082460BE0286A40F004002862EEE700BFBD
:100CA000FFF7FCFBA0EB0A0159455AD8286A8007D8
:100CB000F6D50CE0FFF7F2FB824605E0FFF7EEFB0E
:100CC000A0EB0A0159454CD8286A8007F6D41FB119
:100CD000E86920F08050E861E06988B36968C1F391
:100CE0008101022944D00228C6F8608004D0FFF7B1
:100CF000D5FB044638E034E0FFF7D0FB074604E0BC
:100D0000FFF7CCFBC01B02282BD828688001F7D442
:100D1000206AB0F5803F05D16868A16820F40030F2
:100D200008436860D4E908010843696821F4741134
:100D300008436860C6F86090FFF7B0FB044606E021
:100D400025E000BFFFF7AAFB001B022809D828688E
:100D50008001F7D51BE000BFFFF7A0FB001B0228B6
:100D600002D90320BDE8F88F28688001F4D40EE092
:100D70000128F7D06868226A00F48031914204D1DA
:100D8000616A00F47010884201D00120EAE7002077
:100D9000E8E70000001002400000424280044242A6
:100DA0000C0000200070004010B5401EB0F1807FA4
:100DB00001D3012010BD4FF0E02460610F216017C6
:100DC00000F053FB0020A06107202061002010BD2F
:100DD000FEE701684A69D24352050FD46FF480627E
:100DE0004A61002140F8301F20224273817302695A
:100DF00042F0040202610173012070470020704735
:100E00002DE9F843044600680D46DDE908970168BE
:100E10009846164641F4807101604B4600224FF01F
:100E200001112046009700F05BF8E0B9216805F059
:100E3000FE0008613B464A461549204600F084F80A
:100E400088B920684169806900903A464946204641
:100E500000F0C5F850B1206C042804D12068016866
:100E600041F4007101600120BDE8F883F5B2B8F1EA
:100E7000010F09D02168300A08613A4649462046E8
:100E800000F0ADF80028E6D1206805610020EBE70E
:100E90000200010070B516460D4604460DE02046DE
:100EA000FFF797FF08B1012070BD681C05D0FFF760
:100EB000F5FA801BA84207D835B120684069C043C5
:100EC0004007ECD4002070BD002044F8300F2021F2
:100ED0006173A073216941F0200121612073E2E771
:100EE0002DE9F0471E4690460D460446C1F30747DC
:100EF000DDF8209008E0701C06D0FFF7CFFAA0EBD9
:100F00000900B0420FD876B12068012F18D080694F
:100F100025EA00000004000C14D000214145EAD06D
:100F20000020BDE8F087002044F8300F20216173D5
:100F3000A073216941F02001216120730120F0E7B5
:100F40004069E5E70121E9E72DE9F0479A46914636
:100F50000E46044600254FF02008C1F3074725E060
:100F600020684069C043400514D42068016841F4FA
:100F70000071016021686FF480604861256384F826
:100F80003D8084F83E50206C40F00400206484F8DA
:100F90003C501FE0B9F1FF3F08D0FFF77FFAA0EB0C
:100FA0000A0149450CD8B9F1000F09D02068012F7A
:100FB00013D0806926EA00000004000C0BD0CFE7B4
:100FC00044F8305F84F80D80A573206940F020005C
:100FD000206125730120BDE8F0874069EAE770B51C
:100FE00016460D4604460DE02046FFF7F2FE08B116
:100FF000012070BD681C05D0FFF750FA801BA84285
:1010000007D835B120684069C0430006ECD4002001
:1010100070BD002044F8300F20216173A073216956
:1010200041F0200121612073E2E700000D4808B57E
:10103000816941F010018161816901F01001009125
:10104000816941F020018161816901F020010091F5
:10105000816941F008018161806900F00800009019
:1010600008BD0000001002400D4810B50B4901609A
:101070000C49416000214FF480428160C0E90312B5
:1010800041618161C1610162FFF70EFA002803D05E
:10109000BDE81040FFF7FDB810BD0000005400404F
:1010A000A8000020A0860100FEE7FEE770B500243E
:1010B00004F1B000C0B200F05BF9002000F058F974
:1010C000102000F055F90025002000F063F96D1C98
:1010D000EDB2802DF8D3641CE4B2082CE8D370BDC7
:1010E0002DE9F05F9846DDE90A9A17468346002409
:1010F0000D4615E02946584600F046F85E460BE0DE
:1011000019F80400BAF1000F01D0C043C0B2641C4A
:1011100000F040F9761CF6B2BE42F1D36D1CEDB280
:101120004545E7D3BDE8F09F10B504462E2000F0FA
:101130001FF9204600F01CF9002000F019F90020EA
:1011400000F016F9072000F013F9072000F010F95D
:10115000002000F00DF9FF2000F00AF9BDE8104072
:101160002F2000F005B9000070B5C820FFF794F8F3
:10117000044D0024285D00F0FBF8641CE4B2172C39
:10118000F8D370BD1000002010B50446B031C8B2CD
:1011900000F0EEF8102040EA141000F0E9F804F036
:1011A0000F00BDE8104000F0E3B800002DE9F04169
:1011B0001E4615460F4680460024FFF7E5FF1148FE
:1011C00000EB8515285D0EB1C043C0B200F0E2F817
:1011D000641CE4B2102CF5D37F1CF9B24046FFF733
:1011E000D3FF002405EB040090F820000EB1C043AB
:1011F000C0B200F0CFF8641CE4B2102CF2D3BDE80A
:10120000F0810000B01D00082DE9F047203A0024CD
:10121000089E0F468146D5B27F2803D900208F1C37
:101220008146FFB2102B394612D0FFF7ADFF1B49A4
:1012300005EB450001EB4005285D0EB1C043C0B28F
:1012400000F0A8F8641CE4B2062CF5D3BDE8F087E2
:10125000FFF79AFFDFF8488004EB051118F801004A
:101260000EB1C043C0B200F095F8641CE4B2082C83
:10127000F2D37F1CF9B24846FFF786FF00244746A9
:1012800004EB05103844007A0EB1C043C0B200F040
:1012900081F8641CE4B2082CF2D3D7E7A815000843
:1012A000D01700082DE9FF4F81B00026DDE90EA917
:1012B0001D469346804634464FEA5A0727E0281BCE
:1012C000401EC1B20A2000F05BF9BBFBF0F00A211E
:1012D000B0FBF1F201FB120026B9691E8C4201DA63
:1012E00048B101263030C2B207FB0480C0B2534679
:1012F000CDF8009006E007FB0480C0B253462022E0
:10130000CDF800900299FFF77FFF641CE4B2AC4275
:10131000D5D305B0BDE8F08F2DE9F8431E4617463A
:10132000894604460025DDF8208014E0334649460E
:101330002046CDF80080FFF767FF0C2E10D0083450
:10134000E4B27A2C01D90C2E0CD0782C01D9102EB5
:1013500008D06D1CEDB27A5D002AE7D1BDE8F883B4
:10136000A41DEDE709F10100002400F0FF09F0E7FA
:1013700001B584B001214FF4807204A88DE8070004
:101380000B46002278210248FFF748F905B000BD5E
:10139000A800002001B584B001214FF4807204A898
:1013A0008DE807000B46402278210248FFF736F906
:1013B00005B000BDA800002070477047FFF7FEB9D8
:1013C00030B58FB028216846FEF7FEFE14210AA82A
:1013D000FEF7FAFE01210804CDE900100024029472
:1013E00002250491CDE907504FF4E01009906846BA
:1013F000FFF74AFB08B172B6FEE70F20CDE90A05F8
:101400004FF48060CDE90C4002210AA80E94FFF74A
:101410005FFA002801D072B6FEE70FB030BD0000C1
:101420000D48016841F00101016041680B4A11401B
:10143000416001680A4A11400160016821F480217D
:101440000160416821F4FE0141604FF41F01816099
:101450000449C00308607047001002400000FFF814
:10146000FFFFF6FE08ED00E0FEE70907090E002881
:1014700004DB00F1E02080F80014704700F00F005A
:1014800000F1E02080F8141D704700001CB5FFF744
:101490009DF9FFF795FFFFF7C9FDFFF7E5FDFFF7A2
:1014A00063FEFFF703FE002501242D4E10274FF0A9
:1014B0000C08002110232BA208460094FFF72CFFF4
:1014C0000C232BA2022100200095FFF725FF00220C
:1014D000012304211046FFF769FE01231A46042167
:1014E0001020FFF763FE0123022204212020FFF7D2
:1014F0005DFE00231A4606211846FFF757FE00231B
:10150000012206211020FFF751FE002302220621AE
:101510002020FFF74BFECDE90075012306220421B0
:101520003020FFF7BFFECDE9008402234D220721C2
:101530003020FFF7B7FECDE9006504237A220021B1
:101540005A20FFF7CDFDCDE9006408237A2204215B
:101550005A20FFF7C5FD2620FFF7E6FDA9E70000AA
:1015600027000020554E49434F524E5F4C49000022
:10157000756E69636F726E5F6C695F313233000044
:101580000246012000E05043491EC9B2FBD2704719
:101590000000000000000000010203040607080923
:1015A0000000000001020304000000000000000031
:1015B000002F000000000700070000147F147F14B4
:1015C00000242A7F2A12006264081323003649553A
:1015D000225000000503000000001C224100000012
:1015E00041221C000014083E08140008083E0808A8
:1015F000000000A060000008080808080000606003
:101600000000002010080402003E5149453E000041
:10161000427F4000004261514946002141454B3123
:10162000001814127F10002745454539003C4A49EF
:101630004930000171090503003649494936000661
:101640004949291E000036360000000056360000C9
:101650000008142241000014141414140000412244
:10166000140800020151090600324959513E007C1C
:101670001211127C007F49494936003E4141412206
:10168000007F4141221C007F49494941007F0909EF
:101690000901003E4149497A007F0808087F00009F
:1016A000417F4100002040413F01007F081422415A
:1016B000007F40404040007F020C027F007F040812
:1016C000107F003E4141413E007F09090906003E6E
:1016D0004151215E007F0919294600464949493197
:1016E0000001017F0101003F4040403F001F2040BA
:1016F000201F003F4038403F006314081463000778
:101700000870080700615149454300007F414100CE
:1017100000552A552A55000041417F00000402016E
:10172000020400404040404000000102040000204C
:1017300054545478007F484444380038444444208A
:1017400000384444487F00385454541800087E0937
:1017500001020018A4A4A47C007F080404780000FF
:10176000447D4000004080847D00007F10284400BC
:101770000000417F4000007C04180478007C0804CD
:10178000047800384444443800FC24242418001809
:10179000242418FC007C08040408004854545420F5
:1017A00000043F444020003C4040207C001C20407E
:1017B000201C003C4030403C004428102844001CC1
:1017C000A0A0A07C004464544C44141414141414B9
:1017D0000000000000000000000000000000000009
:1017E000000000F80000000000000033300000009E
:1017F00000100C06100C06000000000000000000A5
:1018000040C07840C0784000043F04043F04040016
:10181000007088FC08300000001820FF211E000026
:10182000F008F000E018000000211C031E211E003B
:1018300000F00888700000001E21232419272110C1
:1018400010160E0000000000000000000000000064
:10185000000000E01804020000000007182040000B
:1018600000020418E00000000040201807000000FB
:10187000404080F0804040000202010F010202005F
:10188000000000F0000000000101011F0101010043
:10189000000000000000000080B0700000000000A8
:1018A0000000000000000000000101010101010131
:1018B00000000000000000000030300000000000C8
:1018C000000000008060180400601806010000009D
:1018D00000E010080810E000000F102020100F009A
:1018E000001010F8000000000020203F2020000021
:1018F0000070080808887000003028242221300079
:1019000000300888884830000018202020110E0080
:101910000000C02010F8000000070424243F240029
:1019200000F80888880808000019212020110E00FE
:1019300000E0108888180000000F112020110E0010
:1019400000380808C83808000000003F0000000008
:101950000070880808887000001C222121221C00C9
:1019600000E010080810E0000000312222110F00F2
:10197000000000C0C0000000000000303000000087
:1019800000000080000000000000806000000000F7
:101990000000804020100800000102040810200010
:1019A000404040404040400004040404040404005B
:1019B00000081020408000000020100804020100F0
:1019C000007048080808F0000000003036010000F0
:1019D000C030C828E810E0000718272423140B00A3
:1019E0000000C038E0000000203C2302022738201D
:1019F00008F8888888700000203F202020110E0001
:101A0000C0300808080838000718202020100800F7
:101A100008F808080810E000203F202020100F00E0
:101A200008F88888E8081000203F202023201800AC
:101A300008F88888E8081000203F20000300000014
:101A4000C03008080838000007182020221E0200B5
:101A500008F808000008F808203F210101213F2074
:101A6000000808F8080800000020203F202000009F
:101A700000000808F8080800C08080807F0000008F
:101A800008F888C028180800203F200126382000C8
:101A900008F8080000000000203F2020202030002F
:101AA00008F8F800F8F80800203F003F003F200049
:101AB00008F830C00008F808203F200007183F0051
:101AC000E01008080810E0000F10202020100F0080
:101AD00008F808080808F000203F21010101000073
:101AE000E01008080810E0000F18242438504F00B8
:101AF00008F8888888887000203F2000030C302078
:101B000000708808080838000038202121221C00B5
:101B1000180808F8080818000000203F20000000FE
:101B200008F808000008F808001F202020201F00E7
:101B30000878880000C83808000007380E01000047
:101B4000F80800F80008F800033C0700073C030011
:101B5000081868808068180820302C03032C302077
:101B60000838C800C83808000000203F20000000E6
:101B700010080808C838080020382621202018003E
:101B8000000000FE020202000000007F4040400012
:101B9000000C30C000000000000000010638C0004A
:101BA00000020202FE000000004040407F000000F2
:101BB0000000040202020400000000000000000017
:101BC0000000000000000000808080808080808015
:101BD00000020204000000000000000000000000FD
:101BE00000008080808000000019242222223F20F3
:101BF00008F8008080000000003F112020110E0036
:101C00000000008080800000000E112020201100C4
:101C1000000000808088F800000E112020103F2076
:101C20000000808080800000001F222222221300FA
:101C3000008080F0888888180020203F2020000045
:101C40000000808080808000006B949494936000FA
:101C500008F8008080800000203F210000203F2005
:101C600000809898000000000020203F2020000005
:101C7000000000809898000000C08080807F0000F5
:101C800008F8000080808000203F24022D302000D2
:101C9000000808F8000000000020203F202000007D
:101CA0008080808080808000203F20003F20003F97
:101CB0008080008080800000203F210000203F20A5
:101CC0000000808080800000001F202020201F0056
:101CD000808000808000000080FFA12020110E0085
:101CE0000000008080808000000E112020A0FF8076
:101CF000808080008080800020203F212000010023
:101D00000000808080808000003324242424190077
:101D1000008080E0808000000000001F2020000084
:101D20008080000000808000001F202020103F20C5
:101D3000808080000080808000010E300806010055
:101D400080800080008080800F300C030C300F00FA
:101D500000808000808080000020312E0E31200025
:101D6000808080000080808080818E701806010055
:101D700000808080808080000021302C2221300073
:101D800000000000807C020200000000003F404094
:101D90000002027C800000000040403F0000000084
:101DA00000000000FF00000000000000FF00000035
:101DB00040221408F40200F80808FF0808F80000A0
:101DC0000000000000000000000000000000000013
:101DD000084482413F00206321213F2129336000D4
:101DE00000000000000000000000000000000000F3
:101DF0002010E824272424E424342C20E0000000D0
:101E000000000000000000000000000000000000D2
:101E100080601F090909097F090949897F000000BD
:101E200000000000000000000000000000000000B2
:101E300000007C545556547C545655547C00000088
:101E40000000000000000000000000000000000092
:101E5000010101FD45454545454545FD010101009F
:101E60000000000000000000000000000000000072
:101E7000901E000800000020A800000028010008B3
:101E8000381F0008A8000020B80600004401000820
:101E90000100000010000000000000000024F40019
:101EA000AED580A83FD30040A1C8DA1281CFD9F1C6
:101EB000DB40A4A68D14AF0000000000000000006D
:101EC00080800040E0E06000408000000080806092
:101ED00060100000000000000000000090B2666E7C
:101EE000ECC98302004080000C0C0103070F112095
:101EF000408000000000000000000008183B37662A
:101F0000EEEECC88800000010204081010101010C2
:101F1000100F0000000000003E4040403E007E04E4
:101F200008107E007E003C42424242007E42424215
:081F30007E007E0408107E0013
:04000005080000ED02
:00000001FF
